S00D0000436C6F636B2E737265632B
S113000012C0E0C2B7C22AC029C028C027C026C077
S113001025C024C023C022C021C020C01FC01EC0D0
S11300201DC01CC01BC011241FBECFE5D4E0DEBF21
S1130030CDBF10E0A0E6B0E0E0E5F6E002C0059038
S11300400D92A239B107D9F720E0A2E9B0E001C0CE
S11300501D92A03CB207E1F7D8D2F8C2D1CF1F93CA
S1130060CF93DF93182FEB012BD080ED90E034D0A9
S1130070812F90E031D024D081ED90E02DD0CE01BD
S113008032D024D0DF91CF911F910895CF93DF9385
S1130090D82FC62F15D080ED90E01ED08D2F90E084
S11300A01BD08C2F90E018D011D0DF91CF91089500
S11300B082E080B983E081B986B7846086BF089501
S11300C084EA86BF06B607FEFDCF089584E986BF9D
S11300D006B604FCFDCF089583B984E886BF06B64E
S11300E007FEFDCF0895FC0196B7906896BF06B64B
S11300F007FEFDCF83B180830895982F92959F705A
S1130100990F292F220F220F920F8F70890F0895B4
S11301109DEC899F912D1124969596959695392F4E
S1130120330F232F220F220F230F821B8F7020E106
S1130130929F800D1124089540E050E060E070E04B
S113014020E030E02CC02A30310511F12531310591
S1130150F9F0FB01E656FF4F808190E0FC01EE0FC1
S1130160FF1FEE0FFF1FE80FF91FE05AFF4FE40FC8
S1130170F51F8081F901E056FF4F80834F5F5F4F89
S11301804530510551F46F5F7F4F40E050E005C0AA
S11301908DEBF901E056FF4F80832F5F3F4F2032F4
S11301A031058CF2089540E050E060E070E020E01A
S11301B030E02CC08091930090E086179707FCF004
S11301C0FB01EC56FF4F808190E0FC01EE0FFF1F16
S11301D0EE0FFF1FE80FF91FE05AFF4FE40FF51F62
S11301E08081F901E056FF4F80834F5F5F4F4530B8
S11301F0510551F46F5F7F4F40E050E005C08FEF31
S1130200F901E056FF4F80832F5F3F4F20323105C5
S11302108CF20895CF93DF93C82FD62F842F90E0CC
S113022077DFBC0180E090E031DF8D2F90E070DF5C
S1130230BC0181E090E02ADF8C2F90E069DFBC01F3
S113024082E090E023DFDF91CF9108950F931F9315
S1130250CF93DF931F92CDB7DEB7BE016F5F7F4FA1
S113026080E090E0FCDE898190E047DF182FBE013A
S11302706F5F7F4F81E090E0F2DE898190E03DDFA7
S1130280082FBE016F5F7F4F82E090E0E8DE898136
S113029090E033DFEAE9F0E09DEC899F212D112401
S11302A02695269526952083220F322F330F330F60
S11302B0230F821B8183099F812D112486958695A6
S11302C086958283880F282F220F220F820F081B06
S11302D00383199F912D1124969596959695948351
S11302E0990F892F880F880F980F191B15830F906A
S11302F0DF91CF911F910F91089580919200811108
S113030004C081E08093920008958091930082302C
S1130310C9F128F4882361F08130C9F0089584304C
S113032009F454C008F43FC0853009F460C008954E
S1130330E4E9F0E090819F5F8BEA989F812D11247E
S11303408695282F220F820F981B90830895E4E945
S1130350F0E081818F5F9081923080F49DEC899FE1
S1130360912D1124969596959695990F292F220FE4
S1130370220F920F891B80939500089583708093B8
S113038095000895E4E9F0E092819F5F8BEA989FDD
S1130390812D112486958695282F220F820F880F90
S11303A0981B92830895E4E9F0E093819F5F8DECBC
S11303B0989F812D1124869586958695880F282FE0
S11303C0220F220F820F981B93830895E4E9F0E033
S11303D094819F5F8BEA989F812D11248695869541
S11303E0282F220F820F880F981B94830895E4E925
S11303F0F0E095819F5F8DEC989F812D1124869567
S113040086958695880F282F220F220F820F981B1E
S11304109583089580919300853019F41092930088
S113042008958F5F809393000895AC0120E030E03D
S113043012C047FF03C095B3926002C095B39D7F7D
S113044095BB95B3916095BB95B39E7F95BB440FC7
S1130450551F2F5F3F4F283031055CF308950F93EC
S11304601F93CF93DF9300E010E026C081E090E07B
S1130470002E02C0880F991F0A94E2F7D6DFC0E06D
S1130480D0E00FC0FE01EE0FFF1FEE0FFF1FEE0FB7
S1130490FF1FE00FF11FE056FF4F808190E0C5DFA2
S11304A02196C430D10574F385B3846085BB85B3CC
S11304B08B7F85BB0F5F1F4F08301105BCF2DF91A6
S11304C0CF911F910F910895CF93DF93C4E9D0E0AA
S11304D0288130E0C901880F991F220F331F220F92
S11304E0331F220F331F820F931F99812A8130E01B
S11304F0B901660F771F220F331F220F331F220FFC
S1130500331F620F731F2B81620F711D2C8130E02A
S1130510A901440F551F220F331F220F331F220F2F
S1130520331F420F531F2D81420F511D890F72DE5D
S1130530109293001092920086E0FE0111928A9527
S1130540E9F784DEF9DD8BDFDF91CF91089580B385
S113055086958695869587708730F1F3863011F4F9
S1130560CCDE0895843011F455DF0895823009F407
S1130570ABDF08951F920F920FB60F9211242F93A1
S11305803F934F935F936F937F938F939F93AF9317
S1130590BF93EF93FF93F8941BBED9DF80EC8BBF1E
S11305A07894FF91EF91BF91AF919F918F917F913B
S11305B06F915F914F913F912F910F900FBE0F90CC
S11305C01F9018951F920F920FB60F9211242F931C
S11305D03F934F935F936F937F938F939F93AF93C7
S11305E0BF93EF93FF9332DEFF91EF91BF91AF91F1
S11305F09F918F917F916F915F914F913F912F9137
S11306000F900FBE0F901F90189511BA8FEF87BBF4
S113061084BB83EE81BB15BA12BA18BA82B388635D
S113062082BB60E170E087E090E030DD41DD8BB7B4
S1130630806C8BBF8AE085BF789480919200882378
S113064011F0B1DD01C078DD0ADFF7CFF894FFCFF8
S1130650837D7D83FFDFBD01FDFFB36D6D9DFFBB1A
S11306606D6D93FF0FEFEF01FF0D6D6D73FF836DE4
S11306706DB3FF7F716F1FFF936D6D93FF9B6D6D66
S105068083FFF2
S9030000FC
